S01900007365635377697463684368315F48447634312E7333378C
S31500000000C01B002071CD0100F13A0000F53A000056
S31500000010A70A0A010001000004180FAC20667E0042
S3150000002000000000000000000000000000000000CA
S3150000003000000000D81C03000000000000000000C3
S315000000400000000000000000FFFFFFFFFFFFFFFFB2
S31500000050FFFFFFFF00B00300410000000040040066
S31500000060FFFFFFFFFFFFFFFF28000000000000006A
S31500000070000000000000000000000000000000007A
S315000000800000000000000000B03D0020B03D002050
S31500000090C01B0020F0590300F40103006012002089
S311000000A0301200200040040000000000A8
S31500000100C01B002071CD0100F13A0000F53A000055
S31500000110FD3A0000F93A0000013B00006DCD0100F8
S315000001206DCD01006DCD01006DCD01006DCD0100DD
S31500000130053B00006DCD01006DCD01006DCD0100C8
S315000001407D5300009DB60100413D0000783B000054
S31500000150E5AF010009B70100A9B60100C1B601006B
S31500000160A1B60100B14A0000854B00006D65000094
S3150000017071DD0000783B0000783B000001170000AD
S315000001806DCD0100783B0000A94B0000783B0000D4
S31500000190783B0000783B0000783B0000783B00008D
S315000001A0783B0000783B0000783B0000783B00007D
S315000001B00DB70100A5B60100DD9C0100015100004C
S315000001C04DB70100783B0000CD9C0100783B000054
S315000001D0783B0000783B0000783B0000783B00004D
S315000001E0783B00006DCD01006DCD0100783B00002D
S311000001F0783B0000783B00006DCD01005C
S315000001FCF8B500BFF8BC08BC9E467047F8B500BF02
S3150000020CF8BC08BC9E46704710B5054C237833B92C
S3150000021C044B13B10448AFF300800123237010BDC7
S3150000022C60210020000000004854030008B5034B71
S3150000023C1BB103490348AFF3008008BD0000000062
S3150000024C6421002048540300154B002B08BF134BA8
S3150000025C9D46A3F5803A00218B460F461348144A57
S3150000026C121A2FF0EEFE0F4B002B00D098470E4BB8
S3150000027C002B00D098470020002104000D000D48EB
S3150000028C002802D00C48AFF300802FF09BFE200014
S3150000029C29000DF0B1FF2FF081FE00BF0000080011
S315000002ACC01B0020000000000000000060210020A0
S315000002BCB03D002000000000000000001FB5002229
S315000002CC0A4C029201231146CDE90033FE20052388
S315000002DC227000F0E1FF0649022010F049FC0549A6
S315000002EC204604B0BDE8104021F01CBC1C30002098
S315000002FC2C040300C0D401000149024821F012BCB1
S3150000030CC0D401001C300020014B00221A7070472B
S3150000031C14300020034B1B7813B9012000F0C6BE25
S3150000032C704700BFCB1B00207047000008B50D4B73
S3150000033C1B78B3B940F6B833984204D10120BDE816
S3150000034C084000F06DB944F62063984209D1064B7B
S3150000035C1B7833B9054A137024F010FE41F6583059
S3150000036CEDE708BDCB1B00202C300020CA1B00205B
S3150000037C08B500F057F8002008BD7047034B1A78F3
S3150000038C1AB100221A7000F057B87047C81B00202B
S3150000039C044B1B7823B9C8220A21012000F0ECBDBE
S315000003AC704700BFCB1B00207047704708B50A4941
S315000003BC022010F0DDFB0021012000F03DFE0021A3
S315000003CC012000F046FE0121084600F050FEBDE873
S315000003DC084024F0D3BD00BF84040300F0B585B0FB
S315000003EC0C460B9D9DF830602B7800921746CDE994
S315000003FC016302460B460220094910F0B9FB64B9A9
S3150000040C48F202039F4208D1102E06D12878012803
S3150000041C01D1FFF7CBFF204600E0012005B0F0BD6F
S3150000042C3D04030008B500F0D3FC00F0B3FCBDE8B6
S3150000043C084000F017BC00001FB503F0B5FC002106
S3150000044C04200FF0C3FD002103200FF0BFFD002197
S3150000045C02200FF0BBFD01F017F8002000F05AFD4A
S3150000046C002000F041FD00221649012000F068FD35
S3150000047C154B164A00931649164B012000F0B8FC92
S3150000048C154B03A91B88ADF80C30012001F026F89A
S3150000049C012001F031F80121007800F07DFD01F01A
S315000004AC31F84FF47A72062101200EF04DF84FF414
S315000004BC7A710A4821F036FB03F076FC05B05DF83C
S315000004CC04FB00BF890D0000D90D0000D10D000002
S315000004DCC10D0000D50D00009B0403002430002044
S315000004EC1F4B37B500241C7000F076F900F07AF932
S315000004FC012000F0CAFD001B18BF012047F2305541
S3150000050C400000F011FC00F029FB23462246019422
S3150000051C00950621012000F003FB0123CDE90053D1
S3150000052C48F2010223460621022000F0F9FA23467E
S3150000053C44F20102CDE900540621022000F0F0FA43
S3150000054C2046032100F0E2FAFFF7D6FE054B0649DA
S3150000055C1C70022003B0BDE8304010F009BB00BF90
S3150000056C24300020CB1B00209D040300034B0022EB
S3150000057C1A70034B02221A70704700BF2C300020F1
S3150000058CC91B00200F4B002210B51A700E4B01240C
S3150000059C1C700EF03BFC022813D00AF083F80B48B3
S315000005AC027872B90A4B197859B10A491A7021F0B6
S315000005BCB9FA20464FF416520521BDE8104000F05A
S315000005CCDBBC10BD3C300020CA1B00202C300020A8
S315000005DCC91B00208884020008B5064B00221A703D
S315000005EC0EF014FC022804D10120BDE8084007F0E7
S315000005FCABBE08BD3430002010B52DF0DFFF0CF07B
S3150000060C29F9012400F046FFA04200D210BD204675
S3150000061C09F0A8F9204601340CF030FFE4B2F1E7FA
S3150000062C0146014821F07EBA3C30002010B5124B31
S3150000063C124C18B902222270187010BD1978227843
S3150000064C71B122B92820BDE81040FFF7E9BF012A95
S3150000065C18BF01214FF0000218BF21701A70ECE789
S3150000066C022A05D14FF4C8721421012000F084FC33
S3150000067C01232370E1E700BF2C300020C91B0020AA
S3150000068C264B37B51C78ECB990281ED1244B012586
S3150000069C1D7000F0B7FE00F0B5FE00F0B3FE502260
S315000006AC0A21284600F068FC4FF6FE730093294693
S315000006BC2046019523462A4600F018FD03212046C4
S315000006CC00F024FA002003B030BD9128FAD10EF0C8
S315000006DC9DFBE8B9134B1B780BB1FFF78DFF01207F
S315000006EC00F0C8FF20B100210122084600F0A6FF49
S315000006FC50220A21012000F03FFC0B4B00221A70FD
S3150000070C074B022240F6B8301A70FFF789FFD9E77B
S3150000071C0EF07CFB0328D5D1DCE700BFCB1B0020F9
S3150000072CC91B0020CA1B00202C300020F0B5274B1B
S3150000073C2748002285B01A7000F02BFA04460028D0
S3150000074C31D0437902792349003318BF01230220A3
S3150000075C10F00EFA61792079003118BF012100F0F2
S3150000076CB1FA2679012E17D1677900960DF10F0390
S3150000077C48F20102062130460FF09CFE60B99DF846
S3150000078C0F50012D11D1284600F0B6FE391C18BFAA
S3150000079C0121007800F000FC20462FF03FFCC82118
S315000007AC0A4821F0BFF905B0F0BD022D06D130463E
S315000007BC00F0A2FEB7FA87F14909EAE7002DEBD162
S315000007CC304600F099FE2946E3E700BF443000208E
S315000007DC7C210020D4040300014800F0CDB900BFF1
S315000007EC7C2100207FB5012400940DF10F0348F203
S315000007FC0102062120460FF05DFE80B9204600F06E
S3150000080C44FC9DF80F50022D06460AD1204600F0F6
S3150000081C73FEB6FA86F14909007800F0BDFB04B008
S3150000082C70BD25B9204600F067FE2946F4E7012D78
S3150000083CF5D1284600F060FE311C18BF0121EBE70C
S3150000084C3A4B1B7873B505460C46002B6BD144F21C
S3150000085C010291424CD100F035FC3C23B0FBF3F283
S3150000086C02FB130080B2002856D10122CDE90042CA
S3150000087C0623294600F03AFC0421012000F046F933
S3150000088C002C40D1284600F000FC061C18BF01269F
S3150000089C012D1CD1264B1C684CB12379012B30D170
S315000008AC2348214600F07BF920462FF0B7FB0820A1
S315000008BC2FF0ACFB01230371014646711C4800F076
S315000008CC81F91C48037813B9C82121F02BF9284665
S315000008DC00F0D0FE38B3284600F0D4FE864222D172
S315000008EC00212A46084602B0BDE8704000F0A6BEBC
S315000008FC44F2020291420FD00A46062100F010FE85
S3150000090CBAE72468C8E748F201039C420BD102B04F
S3150000091CBDE87040FFF766BF0421012002B0BDE8B8
S3150000092C704000F0F3B802B070BD00BFCB1B0020C6
S3150000093C7C21002044300020F0B54FF6FF7399421D
S3150000094C85B00D463DD09A423BD0204B1B681B68A8
S3150000095C5E79304600F099FBFF28074633D004AB8E
S3150000096C212223F8025D06210092304644F2010250
S3150000097C0FF04FFD0446F0B93B46324614490220AF
S3150000098C10F0F6F8B7FA87F032462946400900F01F
S3150000099C55FE3C22B5FBF2F302FB13539BB253B14B
S315000009AC4DB144F201030122CDE900323146062352
S315000009BC204600F09BFB204611F0B2F8012005B052
S315000009CCF0BD8524F7E70124F5E700BFC83A0020FF
S315000009DCA9040300F8B5414B414D00221A70414B56
S315000009EC2A781978914204D03F491A70022010F0E7
S315000009FCBFF83E4E32781AB13D49022010F0B8F8D5
S31500000A0C3378042B09D13B4A3B491268097822B149
S31500000A1C107988420FD1D16811612A78012A1AD02F
S31500000A2C0BD3022A37D00023337064212B48BDE840
S31500000A3CF84021F077B81268E9E7022B01D10123BF
S31500000A4C0CE0032BEFD102232C4A2B7000231360EE
S31500000A5C2B4A1360E7E7012B02D100232B70E2E748
S31500000A6C032BF0D0234B274D1C68002CDBD02369BD
S31500000A7C012B03D9013B23612468F6E729460220A2
S31500000A8C10F076F8E36823612289A37AE1880120C5
S31500000A9C00F046FDF0E7012BDFD0194A136801334D
S31500000AAC312BD6D900231360124B174F1C6834B95F
S31500000ABC124A13680133022BCBD91460BFE73946AF
S31500000ACC022010F055F8E36823612289A37AE188A5
S31500000ADC012000F025FD2468E9E700BF4C3000201A
S31500000AEC8A21002080210020F204030089210020A5
S31500000AFC010503008421002088210020902100207C
S31500000B0C8C21002014050300260503000329034B42
S31500000B1C86BF00221A701970704700BF8921002009
S31500000B2C2DE9F84381461820884617461E46089C30
S31500000B3C9DF824502FF06AFA80F80490A0F80680ED
S31500000B4C07818672C0E9034405750146BDE8F84382
S31500000B5C014800F037B800BF8421002008B50448CE
S31500000B6C00F00AF864210348BDE8084020F0DABF1B
S31500000B7C842100204C30002000230360704700685D
S31500000B8C7047006808B9704718460368002BFBD1FC
S31500000B9C704703680BB11A68026018467047036801
S31500000BAC10B53BB1002499421A6806D11CB90260F3
S31500000BBC00230B6010BD2260FAE71C46002AF9D010
S31500000BCC1346F0E738B50546FFF7E9FF00230B603F
S31500000BDCFFF7D7FF08B9296038BD0160FCE7036849
S31500000BEC002003B9704701301B68FAE710F0800F3C
S31500000BFC14BF164A164A4FF4007310F0400F1360D8
S31500000C0C14BF124A124A4FF4006310F0200F1360FF
S31500000C1C14BF104A104A4FF4004310F0100F136023
S31500000C2C14BF0E4A0E4A202310F0080F136014BF8F
S31500000C3C0A4A0B4A082310F0040F136014BF054A26
S31500000C4C054A4FF400631360704700BF6CA0004662
S31500000C5C6CA000449CA000469CA000440CA000463E
S31500000C6C0CA0004408B50121154805F0D9FD002358
S31500000C7C04220921022006F03DFE002304220B214A
S31500000C8C022006F037FE002304220F21032006F073
S31500000C9C31FE002318460422052106F02BFE002304
S31500000CAC18460422032106F025FE00230320042205
S31500000CBC0B2106F01FFE0020BDE80840FFF796BF8B
S31500000CCC00350A00012873B505460E461DD00228CC
S31500000CDC1ED003281FD0042815D10022012101247F
S31500000CECE6B18C40E443E4B2E043C0B2FFF77EFFCA
S31500000CFCFA210B4820F016FF009433462A46094980
S31500000D0C02200FF035FF02B070BD06220721E6E780
S31500000D1C04220521E3E701460222E0E79440E1E7DD
S31500000D2C543000205305030010B510F0020F15BF08
S31500000D3C802040207F24BF24FFF758FFFA21054866
S31500000D4C20F0F0FE224604490220BDE810400FF0C8
S31500000D5C0FBF00BF543000207505030008B5054BC6
S31500000D6C00201870FFF742FF03490220BDE8084037
S31500000D7C0FF0FEBE54300020390503004FF400631B
S31500000D8C10B1024A13607047014AFBE73CA00044CD
S31500000D9C3CA0004610B50121054805F041FD012394
S31500000DAC04220B211846BDE8104006F0A3BD00BF77
S31500000DBC00350A00024B1868B0FA80F040097047FB
S31500000DCCBC091442FFF7A6BAFFF7AEBAFFF7AEBAE4
S31500000DDC10B50121054805F023FD01231A460F2104
S31500000DEC1846BDE8104006F085BD00BF00350A0068
S31500000DFC2DE9F04104462020884617461E46069DDE
S31500000E0C2FF004F90471002484714471C4600481C8
S31500000E1CC0E90487C0E906650146BDE8F041014812
S31500000E2CFFF7D0BE942100202B4B00222DE9F04178
S31500000E3C1A702A4B1C68ECB1294D2A4F4FF6FF76D7
S31500000E4C94F80580B8F1000F07D0B8F1010F1FD048
S31500000E5C00236371E360238109E084F8068023692B
S31500000E6C984798B12389A4F80880B34208D124681E
S31500000E7C002CE5D132211848BDE8F04120F052BED5
S31500000E8C63699847637901336371F0E72081EEE774
S31500000E9CE36884F806800133AB4288BF3B46E360C7
S31500000EAC23699847E268804678B9238901339BB257
S31500000EBC32202381504353B1A369A4F80880984784
S31500000ECC6379C4F80C80013BDEE7002323813220D2
S31500000EDCE36950439847CAE75C3000209421002010
S31500000EEC9F860100A086010010B504460748FFF74F
S31500000EFC43FE24B90648BDE8104020F007BE214643
S31500000F0C0348BDE8104020F00DBE00BF9421002020
S31500000F1C5C30002010B504460748FFF72DFE24B9B7
S31500000F2C0648BDE8104020F0F1BD21460348BDE857
S31500000F3C104020F0F7BD00BF98210020643000203F
S31500000F4C70B5054628200E4614462FF05FF8002390
S31500000F5C43710571047480F8204046628361C0E9D0
S31500000F6C0233C36143610146BDE870400148FFF797
S31500000F7C29BE00BF9821002010B5064B1B6843B153
S31500000F8C1C798442FAD1C3E9061293F820205961E0
S31500000F9C1A7410BD98210020044B1B682BB11A79CA
S31500000FAC8242FAD183F820107047704798210020AE
S31500000FBC1F4B70B500251D701E4B1C68002C2DD0C8
S31500000FCC012663798BB1A2681AB1E3682BB1013B98
S31500000FDCE360636A207C98471DE0237C013AB3FAF0
S31500000FEC83F3E2605B092374F3E7D4E906327AB142
S31500000FFC013AE26113B1013BA361EAE7636903B10C
S3150000100C013BA361237C002B0CBF33462B46EAE73E
S3150000101C53B1013BA3612468002CD2D11921044899
S3150000102CBDE8704020F07EBD636A94F82000D2E7DC
S3150000103C64300020982100201FB504AB102203F861
S3150000104C011D0092062100220FF0E3F905B05DF8B0
S3150000105C04FB1FB504AB212223F8021D00920621C6
S3150000106C44F201020FF0D5F905B05DF804FB1FB58B
S3150000107C04AB302203F8011D0092062148F201024E
S3150000108C0FF0C7F905B05DF804FB1FB501230093FB
S3150000109C00220DF10F0306210FF00CFA20B99DF872
S315000010AC0F0005B05DF804FBFF20FAE710B5044607
S315000010BCFFF7EBFFB0FA80F149092046BDE8104076
S315000010CCFFF7BABF1FB50223009344F201020DF1DC
S315000010DC0E0306210FF0EEF920B9BDF80E0005B08F
S315000010EC5DF804FB4FF6FF70F9E700002DE9F047B9
S315000010FC8EB080460F4691469A46BDF858509DF8DC
S3150000110C5C400DF083FE022849D10DF11303002C2F
S3150000111C029305AE4FF02103019300960CBF80237A
S3150000112C40232A46514638460FF0B6F9002836D1E8
S3150000113C1F4B18801F4B18701F4B002C18704FF04C
S3150000114C0A020CBF20460820514610F0ADFE284678
S3150000115C10F0E6FE9DF8130010F0D6FE9DF8130075
S3150000116C0EF0E6F8F0B130460FF08CFC134DDFF8BC
S3150000117C54A084B2288822463146504401F00EFC15
S3150000118C2B8849461C4438462C8010F081FE2B884F
S3150000119C0B4ACDF800A0414600200DF09FFB0EB087
S315000011ACBDE8F0879DF813000EF052F8DEE700BF9D
S315000011BC962900209829002094290020DE3A002048
S315000011CCD23A0020E03A00202DE9F0478EB0804656
S315000011DC0F4691461D46BDF858400DF017FE0228E5
S315000011EC45D10DF11303039305AE212341F2542A85
S315000011FC02930196CDF800A0402322462946384694
S3150000120C0FF02AF998BB1E4BA3F800A01D4B1870C3
S3150000121C1D4B0A2218702946082010F045FE204660
S3150000122C10F07EFE9DF8130010F06EFE9DF8130074
S3150000123C0EF07EF8F0B130460FF024FC134DDFF8BB
S3150000124C54A084B2288822463146504401F0A6FBAD
S3150000125C2B8849461C4438462C8010F019FE2B88E6
S3150000126C0B4ACDF800A0414600200DF037FB0EB01E
S3150000127CBDE8F0879DF813000DF0EAFFDEE700BF2E
S3150000128C962900209829002094290020DE3A002077
S3150000129CD23A0020E03A00202DE9F04F85B09A466C
S315000012AC214D9DF83C30214C0393002383462B8023
S315000012BC0E464FF48A5300290CBF08200C2090468A
S315000012CC9DF83870BDF840906280E3800FF034FBD7
S315000012DC1EB141F254200FF043FB58460FF02CFB85
S315000012EC01200FF029FB2B88002EC3F1520341F28B
S315000012FC54229BB208BF0022CDE900234146524638
S3150000130C384640230FF0E4F89DF80C30084A637118
S3150000131C0E922B88054A27714946002005B0BDE878
S3150000132CF04F0DF0DBBA00BF243A0020263A00201D
S3150000133C343A00202DE9F0411D468AB0FF23022DD8
S3150000134C06460F461446DDF840808DF8133056D904
S3150000135C98F800305A0701D5042D50D90023CDE951
S3150000136C05340DF112019DF84430CDF81C8005A80A
S3150000137CADF82070ADF822508DF824608DF825302C
S3150000138C00F043FF20B19DF812000AB0BDE8F081D1
S3150000139CA01D10F0D7FA22463946304610F0A2FCB2
S315000013AC80B2A84227D39DF84C300393BDF8483041
S315000013BC02930DF11303CDE900832246EBB23946B5
S315000013CC30460DF088FE8DF812009DF81230BA2BBF
S315000013DC08D1E388DB0605D5002301208DF81230F1
S315000013EC0FF084FA9DF8123013B9112000F0BAFEF2
S315000013FC0FF069FBC7E774238DF81230E5E701207F
S3150000140CC3E70000F0B587B00DF000FD02280746D3
S3150000141C30D11A4D1A4C13236B804FF4806300267F
S3150000142CEB80832323702E80AE800DF0EBFC607076
S3150000143C000AA07004A80DF09BFE082204A9E01C6B
S3150000144C01F0ACFA8E23E3720123CDE90043CDE91A
S3150000145C02660C232A464FF6FD710620FFF76AFF3B
S3150000146C30B10246074938460FF082FB6FF0010097
S3150000147C07B0F0BD4FF0FF30FAE700BFD23A0020BC
S3150000148C6C300020920503000148FFF775BB00BFC6
S3150000149C9C21002008B50248FFF7A1FBC0B208BD8D
S315000014AC9C210020034B1B6813B11A798242FAD196
S315000014BC184670479C21002038B505460C460C2072
S315000014CC2EF0A4FD3CB1057184600146BDE83840A0
S315000014DC0148FFF777BB38BD9C21002038B5044680
S315000014EC02200D462EF092FD2B88038001462046E5
S315000014FCBDE83840FFF7E0BF08B5FFF7D3FF8068BB
S3150000150C08BD000008B50448FFF736FB0121034867
S3150000151CBDE8084020F006BBA02100207830002052
S3150000152CF8B504460C201D460F4616462EF06EFDE9
S3150000153C8780C6800572447201460548FFF742FB58
S3150000154C044803781BB9BDE8F84020F0DFBAF8BDB3
S3150000155CA0210020783000201F4B37B500251F48EE
S3150000156C1D70FFF70CFB0446A0B1C38882881C498A
S3150000157C02200FF0FDFA207A617AB8B1E288A388CE
S3150000158C009228460122FFF71FFE1448FFF701FBC5
S3150000159C2EF044FD1148FFF722FB00281ADD0E48F9
S315000015AC1E2103B0BDE8304020F0BCBA62680D4B7A
S315000015BC9A420DD10846FFF785FD0028E5D1A38890
S315000015CC617A01220192E4880094FFF78FFDDCE733
S315000015DCA388F6E703B030BD78300020A0210020A8
S315000015ECA10503000600014030B5134C237885B0E5
S315000015FC7BB1608878B1013804AB80B2212223F824
S3150000160C020D60800092062144F2010201200EF0C8
S3150000161C00FF05B030BD012544F20103CDE90035CC
S3150000162C294606232A462070FFF760FD6178284676
S3150000163CFFF702FDEDE700BFA421002070B4561E93
S3150000164C0B4BB40041B903F82610234410465980BD
S3150000165C597070BCFFF7FDBC1C44003018BF01204C
S3150000166C01226180607003F8262070BC704700BFB1
S3150000167CA4210020024B013813F82000704700BF4C
S3150000168CA4210020024B03EB800010F8030C7047DA
S3150000169CA421002070B5134C8A00A31822449B7811
S315000016AC1D09062D98BF104E03F00F0394BF755DF0
S315000016BCFF25062B05719ABF0C4DEB5CFF2343717E
S315000016CCFF3B18BF01238371D37014F82130084CEB
S315000016DC4370537883700146204604F0B7FF01230C
S315000016ECA36070BDA8210020C9050300C205030034
S315000016FC002000407FB5224922480022FF23CDE975
S3150000170C01228DF8093003784C6C8D6B03922C40BA
S3150000171CE407DBB228D5022B26D88C6C1A4901EBD0
S3150000172C8301A5B2CE78194906B326041ED521F835
S3150000173C13201749012202FA03F30A781343154AB8
S3150000174C0B701378CBB100231478DC40E407D9B2C4
S3150000175C0FD501701078012404FA03F34340DBB271
S3150000176C01A81370FFF796FF04B070BD21F8135053
S3150000177CDFE70133032BE7D1F6E703230370F3E727
S3150000178C00200040B4210020A8210020B821002010
S3150000179CB6210020B521002001207047012070479A
S315000017AC0120704708B5054B1B681B685879FEF776
S315000017BCFDFD002010F0B4F9012008BDC83A002048
S315000017CC38B5C37B05460BB1832038BDC47C2CB918
S315000017DCFFF7E8FF20B9EB7B002BF5D18120F4E76E
S315000017EC2046F2E7C37B10B504460BB1832010BD2F
S315000017FCC37C1BB1012B10D08120F8E7017D8289B7
S3150000180C8B1C9A420CD380680FF018F908F0B6F9C5
S3150000181C40B9E37B002BE9D1EEE708F0C7F9F7E70F
S3150000182C8020E4E70020E2E7F8B5C37B04460BB161
S3150000183C8320F8BDC37C052B29D8DFE803F0032AE7
S3150000184C35414C4F057D8289AB1C9A4201D28020D2
S3150000185CEFE7ADB2294680680FF0F0F80646A068AF
S3150000186CA789023528440FF00DF928440130874228
S3150000187CEDD32946A289A0680FF0E6F8014630465A
S3150000188C07F0DEFE002848D1E37B002BD0D1812067
S3150000189CCFE7017D82898B1C9A42D8D380680FF0E2
S315000018ACCDF807F0EDFEEDE7037D81895A1C9142D8
S315000018BCCDD38268591C1144D05C07F011FFE1E7C7
S315000018CC017D82898B1C9A42C1D380680FF0B6F8D1
S315000018DC07F088FFD6E707F0E1FFD3E7057D82899D
S315000018ECAB1C9A42B3D3ADB2294680680FF0A6F86A
S315000018FC0646A068A789023528440FF0C3F8284489
S3150000190C01308742A3D32946A289A0680FF09CF820
S3150000191C0146304608F00AF8B4E7002089E7C37B95
S3150000192C2DE9F7430446002B40F03E81C37C042B83
S3150000193C00F0B7800BD8012B00F088803FD3022B28
S3150000194C00F09480032B00F0A18081203DE0402B19
S3150000195C00F0DA800FD8052B00F0B380062BF4D1FB
S3150000196C017D82898B1C9A422ED380680FF066F813
S3150000197C0BF028FC61E0412B00F00581422BE4D1F1
S3150000198C037D8289D91D8A421ED39DB28068691C4B
S3150000199CC65C0FF053F8EB1C0746A068A28910F83A
S315000019AC0380291D0FF04AF80635A3685B5D00938A
S315000019BC424603463946304610F014FC3DE0057DA0
S315000019CC8289AB1C9A4203D2802003B0BDE8F08317
S315000019DCADB2294680680FF031F8A289E91C8A421B
S315000019EC064605F10203EFD3881C8242ECD3A068AD
S315000019FCC75C0FF023F88046A068B4F80C90053548
S31500001A0C28440FF03FF8284401308145DCD32946A1
S31500001A1CA289A0680FF018F88146A06828440FF038
S31500001A2C31F801300544A06810FA85F500954B464F
S31500001A3C4246394630460BF051FE002840F0B6803F
S31500001A4CE37B002B14BF83208120BEE7057D8289B2
S31500001A5CEB1C9A42B8D3ADB2294680680EF0EEFF65
S31500001A6C0235A368595D0BF0ADFEE6E7057D82896C
S31500001A7CEB1C9A42A8D3ADB2294680680EF0DEFF65
S31500001A8C0235A368595D0BF0C7FAD6E7017D82894A
S31500001A9C8B1C9A4298D380680EF0D0FF0BF02AFB71
S31500001AACCBE7057D8289EB1C9A428DD3ADB22946D4
S31500001ABC80680EF0C3FF0235A368595D0BF06AFC13
S31500001ACCBBE7057D8289AB1C9A42FFF47DAFADB2B4
S31500001ADC294680680EF0B2FFA289E91C8A420646A6
S31500001AEC05F10203FFF470AFA068C75C8B1C9A4229
S31500001AFC07D30EF0A3FF0246394630460BF0A6FC80
S31500001B0C9BE74FF6FF72F7E7057D8289AB1C9A427D
S31500001B1CFFF45AAFADB2294680680EF08FFFA2894A
S31500001B2CE91C8A42064605F10203FFF44DAF881CF8
S31500001B3C8242FFF449AFA068C75C0EF07FFF804677
S31500001B4CA068B4F80C90053528440EF09BFF284489
S31500001B5C01308145FFF438AFA289A06829460EF002
S31500001B6C73FF8146A06828440EF08CFF01300544B3
S31500001B7CA06810FA85F500954B4642463946304624
S31500001B8C10F018FB59E7057D8289EB1C9A42FFF48D
S31500001B9C1BAFADB2294680680EF050FF0235A36824
S31500001BAC595D10F017FB48E783200EE700200CE781
S31500001BBCF8B5C37B04460BB18320F8BDC37C022B5E
S31500001BCC21D004D8ABB1012B1AD08120F5E7412BDB
S31500001BDC1CD0422B1DD0402BF7D1037D81899A1C3A
S31500001BEC91422DD38268591CD05C515C10F0BCF923
S31500001BFC01E008F071FE28BBE37B002BE5D0DBE7A8
S31500001C0C08F080FEF7E708F093FEF4E710F0FAF917
S31500001C1CF1E7037D8289591D8A4211D39DB28068F2
S31500001C2C691CC65C0EF00AFFA2890746E91CA0686F
S31500001C3C0EF004FF39460246304610F02BFADAE76E
S31500001C4C8020BAE70020B8E72DE9F04FC37B8FB0B0
S31500001C5C04461BB183200FB0BDE8F08FC37C0B2B61
S31500001C6C4DD8DFE813F00C00550030014C004C0049
S31500001C7C4C0057014C004C004C00C301D701037DAE
S31500001C8C8289581C824224BFA06810F8038099B23E
S31500001C9C34BF4FF0FF08013118F0070509D10F1DAD
S31500001CACBA422FD3A0680EF0C3FEB9B20646FF2780
S31500001CBC11E0022D25D101F108039A42C0F0DF8113
S31500001CCCA5680D4499B24B1C9A421BD3A2684FF0DF
S31500001CDCFF36575C99B2A2890B1D9A4215D3A068A0
S31500001CEC0EF0A6FE00903B462A463146404606F0CC
S31500001CFC67FC002840F0C181E37B002BAAD1812030
S31500001D0CA9E700254FF0FF36D1E74FF0FF30E9E7A2
S31500001D1C037D82899DB203339A4218D32946806883
S31500001D2C0EF089FE0335064616F0070712D1A28976
S31500001D3C05F104084245C0F0AD802946A0680EF0B6
S31500001D4C77FE1FFA88F583464FF0FF0A18E04FF02E
S31500001D5CFF36E9E7022F40F09C80A28905F10803C3
S31500001D6C9A42C0F08E81A7682F449DB26B1C9A4292
S31500001D7CC0F09080A2684FF0FF3B12F805A09DB210
S31500001D8C16F0100340F0898016F0600903D0B9F103
S31500001D9C600F40F07B81A28905F108039A42C0F0DE
S31500001DAC7281A168294409919DB2B9F1000F03D043
S31500001DBCB9F1600F40F06B81AB1C9A42C0F06C819C
S31500001DCC2946A0680A930EF039FE0A9B80469DB2FE
S31500001DDCB9F1200F02D0B9F1400F62D1A289AB1C28
S31500001DEC9A420A935DD32946A0680EF027FE0A9BF9
S31500001DFC81469DB206F01803082B55D1A2896B1C9F
S31500001E0C9A4251D3A268525D0A929DB271044ED584
S31500001E1CA2892B1D9A424AD32946A0680C930EF030
S31500001E2C07FE0C9B0B909DB216F4004344D0A2897E
S31500001E3C05F110039A423ED3A2682A440C929DB235
S31500001E4CF2033BD5A289AB1C9A4237D32946A0682C
S31500001E5C0D930EF0F3FD0D9B9DB2B30331D5A28904
S31500001E6C6B1C9A422DD3A3685B5DCDF80480CDE93B
S31500001E7C06030C9B05930B9B04930A9BCDE90293DB
S31500001E8C099B00933A4653465946304606F09AFB50
S31500001E9C2FE700274FF0FF3B56E700234FF6FF785E
S31500001EAC09934FF6FF79A5E7FF230A93AEE74FF0A8
S31500001EBCFF330B93B8E700230C93C1E74FF6FF7083
S31500001ECCCBE7FF23D1E7017D8289481C824224BFE0
S31500001EDCA068455C8BB234BFFF250133A90714D526
S31500001EEC9E1CB24211D31946A0680EF0A7FDB3B2E0
S31500001EFC0146EA060CD5A0895A1C904208D3A26862
S31500001F0CD25C284606F018FBF3E64FF6FF71F0E7B5
S31500001F1CFF22F6E7037D82898068591C8A429DB2AE
S31500001F2C28BF013505F102062CBF10F803804FF0CF
S31500001F3CFF08B24233D329460EF080FDB5B2814676
S31500001F4CA289A0686B1C9A422ABF10F805A04FF014
S31500001F5CFF0A9DB218F0070624D105F1040B5A4569
S31500001F6C30D329460EF064FD1FFA8BF507464FF069
S31500001F7CFF0BA289A0680A92691C8A4223BF435DA3
S31500001F8C09938DB2FF23284438BF09930EF07AFDCE
S31500001F9C0A9A28440130824217D280205BE64FF61B
S31500001FACFF79CDE7022E0CD105F108039A4271D3C5
S31500001FBC46199DB210F805B00135ADB24FF0FF379A
S31500001FCCD7E700264FF0FF37D1E7A289A06829464C
S31500001FDC0EF03AFD099B0390CDE901B300963B4602
S31500001FEC52464946404606F083FB82E6007DA289AE
S31500001FFC031D9A42D1D386B2A568F31CB21C711C80
S3150000200C0436EB5CAA5C695C285C3544009506F0EA
S3150000201C2DFC6EE6037D8289591C8A42BDD38068ED
S3150000202CC65C9FB216F01F0507F1010104D10EF034
S3150000203CFFFC791D002206E0022D1BD1421807F188
S3150000204C09014FF0FF3006F00703022B01BFA3680E
S3150000205C4D1C5B5CA9B206F0180518BFFF23082DB2
S3150000206C0ABFA568FF256D5C00950146304606F053
S3150000207CEBFC3EE64FF0FF30DCE70020EBE50025FD
S3150000208C21E6002772E6002309938EE609934FF6A4
S3150000209CFF789DE600268DE7B9F1200F4FF6FF7805
S315000020AC7FF499AEFDE6000038B5C37B002B437D6B
S315000020BC14BF8325C325012B044619D10368028A54
S315000020CC598858790DF01CFB90B123685B88192B45
S315000020DC03D0212B07D0284638BDE37B002B14BF39
S315000020EC83258125F7E72046BDE83840FFF7ACBDD0
S315000020FC637D002BEFD12368228A598858790DF01D
S3150000210CF6FA0028E7D023685B88062BE3D801A2F1
S3150000211C52F823F03D210000E3200000E3200000EC
S3150000212C47210000512100005B21000065210000C1
S3150000213C2046BDE83840FFF743BB2046BDE8384093
S3150000214CFFF750BB2046BDE83840FFF76DBB204675
S3150000215CBDE83840FFF7E3BB2046BDE83840FFF743
S3150000216C27BD00BF7047012070470120704770479C
S3150000217C00207047002070470020704700207047F1
S3150000218C00207047002070470120704701207047DF
S3150000219C00207047002070470020704700207047D1
S315000021AC002070470020704770470020704784203D
S315000021BC70477047704770477047002070477047EC
S315000021CC0020704700207047034B1B6818780128C5
S315000021DC08BF0220704700BF0C29002070477047CB
S315000021EC00207047034A03460120C3E9032000225E
S315000021FC1A7070470100FEFF0020704770470020E0
S3150000220C7047002070470020704700207047002060
S3150000221C704700207047002070477047B520704704
S3150000222C00207047002070477047002070477047A9
S3150000223C704770477047704700207047704770476B
S3150000224C094A0023FF21137082F8783082F8653032
S3150000225C82F8773082F8793082F87A1082F87B30FF
S3150000226C024A1360704700BFBE2100208030002058
S3150000227CF8B50D468C680A6828490646202002F0F7
S3150000228C9EF96B687BB92649202002F098F920202C
S3150000229C0BF024FB2349202002F0A6F92020BDE8F0
S315000022ACF8400BF01BBB002EF1D01F4D1F4E204FDC
S315000022BC013C14F8013F23B91A49202002F094F985
S315000022CCE5E7752B18D0762B18D0772B18D0732BF7
S315000022DC18D0722B18D0712B18D0622B18D06E2BED
S315000022EC18D02A2B18D01349134A212B18BF114684
S315000022FC202002F064F9DCE72946F9E73146F7E7D6
S3150000230C3946F5E70D49F3E70D49F1E70D49EFE7D6
S3150000231C0D49EDE70D49EBE70D49E9E763200300AD
S3150000232C690603001A060300270603001B060300B2
S3150000233C3206030073060300700603003E06030014
S3150000234C48060300530603005E06030068060300F6
S3150000235C6D060300F0B5214A92F87B30184452FA08
S3150000236C80F01F4B90F865C090F866501F78A5EB6F
S3150000237C0C050026EDB23046F4B2A54225D90CEB7D
S3150000238C060313445B7811B10CB92D2B17D0782B9F
S3150000239C1FD0582B05D108B137240AE0013C012C7B
S315000023AC14D9602B17D8402BF6D83A2B34BF3024CF
S315000023BC00241B1BDBB29F4203D900FB07300136FE
S315000023CCDAE7052382F879300020F0BD10270020CB
S315000023DCF5E70028E2D05724EBE700BFBE2100202A
S315000023ECCC1B0020FFF72CBF38B501460546012053
S315000023FCFFF73EFFD5E901436CB91C46084D23682F
S3150000240C63B12946202002F0DAF821460020FFF7B6
S3150000241C2FFF0C34F3E71B786E2BEFD038BD00BFC3
S3150000242CD805030008B50449202002F0C8F820207E
S3150000243CBDE808400BF052BADB05030038B5FFF7D0
S3150000244CF1FF064D002461190C34631953F80C3C4A
S3150000245C03B938BD0020FFF70BFFF4E7080C0300A7
S3150000246C2DE9F84F1F4B204D53F820201F492020F3
S3150000247C02F0A5F82B681BB9BDE8F84FFFF7DEBFD5
S3150000248C1B4FDFF874A0FFF7CDFF0026B94697F86F
S3150000249C7B30F4B2013B9C4204DB2868BDE8F84F64
S315000024ACFFF7A2BF47FA86F34C4493F865800023E6
S315000024BCC84494F8662094F86510521A03F1010B7F
S315000024CCD2B2DBB2934205D30A49202002F077F848
S315000024DC0136DCE7434451465A78202002F06FF867
S315000024EC5B46E6E7D01B002080300020D0050300B9
S315000024FCBE210020D9050300D50503002DE9F74FB1
S3150000250C884C94F87730002B00F0A280864B1B7811
S3150000251C13F0010F04F101071FD00025834E14E0C0
S3150000252C6319202093F8662093F86530D21A44FA82
S3150000253C85F3D2B293F8651039440BF0CAF93146DB
S3150000254C202002F03CF80135EDB294F87730AB421E
S3150000255CE6D87749202002F032F894F877300193C8
S3150000256CDFF8D8E1734B002671461EF8012B91F863
S3150000257C01C04FF00008ACEB020C07EB020A5FFA45
S3150000258C8CFC45461868002852D00138D14619E013
S3150000259C2AB9002D4AD04FF001080C33F2E719F88E
S315000025AC011BA1F1410BBBF1190F98BF2031A2F110
S315000025BC410B98BFC9B2BBF1190F9CBF2032D2B2E6
S315000025CC8A42EAD1A9EB0A01614510F8012FDFD145
S315000025DC002ADED11D46584B1D6094F87B30013322
S315000025EC84F87B30D5E901230136F6B2002A35D0C2
S315000025FC1B786E2B31D03F2B23D04FF00009C846E9
S3150000260C4FF0070B042394F87710AA68B14212F81E
S3150000261C08702BD8AFB1904498F801302A2B10D003
S3150000262C212F1CBF032384F879300AE01D46B4E73A
S3150000263CB8F1000F01D1002DCDD1022384F87930E9
S3150000264C002594F87900002869D168680EF03AF9EB
S3150000265C03B0BDE8F04FFFF7F3BD1346019AB24243
S3150000266C82D8032284F879201D46EAE7732F09D80D
S3150000267C712F0BD2212F1FD0622F3CD0002F4BD1A4
S3150000268C032246E0A7F17502022A45D8752F29D0F8
S3150000269C762F2AD0732F2BD0722F47F6FF7A18BFBE
S315000026AC4FF0FF3A012148460193FFF753FE504580
S315000026BC019B01D984F87930AA68424452782A2AB7
S315000026CC94F879201CBF08F101085FFA88F8002AF3
S315000026DCB7D1212F1FBF013609F10109F6B25FFAF6
S315000026EC89F990E74FF0FF0ADCE74FF6FF7AD9E756
S315000026FC4FF07F0AD6E794F87B204A4454FA82F2CC
S3150000270C92F8652022445278222AD5D07B2AD3D03F
S3150000271C052284F87920CFE784F879B0CCE7FFF767
S3150000272C9FFE95E7BE2100203A220020D905030022
S3150000273C18060300080C030080300020232200201A
S3150000274C2DE9F3415E4C5F4F06460D464FF00008EF
S3150000275C66B90DF1070128460BF0B6F878B12628B4
S3150000276C00F0A980012384F879304BE0002D00F0AD
S3150000277CA28016F8013B8DF80730013DEDB23A7890
S3150000278C9DF807303B700D2A01D10A2BE0D00D2B9A
S3150000279C0CD0A3F10A025142514122788846042AF0
S315000027ACD6D8DFE802F0051D263C31000121F4E7FE
S315000027BC21B1FFF7A3FE4FF00108C9E7202B63D028
S315000027CC222B07D10223237094F87820642A5DD13A
S315000027DC0623C8E77B2B01D10323F4E70123F2E799
S315000027EC09B9202BF0D194F87730112B3FD1032364
S315000027FCB9E7222BF7D00029E6D0052384F87930E7
S3150000280C4FF0010804232370B8F1000FA0D094F800
S3150000281C790008B1FFF724FEFFF712FD98E77D2B30
S3150000282C94F87A0003D1FF28DDD005239BE7602BB3
S3150000283C13D8402B13D8392B8CBF002230229A1A6E
S3150000284CD2B20F2A10D8FF280BD002EB0012FF23AE
S3150000285C8DF8072084F87A30B6E75722EFE737224F
S3150000286CEDE784F87A2073E7202BDED170E701338D
S3150000287CDBB284F87730234494F8782083F865200B
S3150000288C00232370002994D1884661E72378012B15
S3150000289C09D19DF80730A3F1410119299CBF2033BA
S315000028ACDBB28DF80730A3189DF80710597001326A
S315000028BC84F878204CE7404602B0BDE8F08100BFB2
S315000028CCBE2100203B2200201BF06CB838B5A0F1CD
S315000028DC430305460A2B31D8DFE803F0060A0A1231
S315000028EC1230303030301100BDE838401AF00CBAD6
S315000028FC1AF020FA20B11AF007FA0028FBD138BDDD
S3150000290C114C20780028FAD10123443D23700BF09A
S3150000291C21FC032D0DD8DFE805F00606090240F66A
S3150000292C01001AF0D7FA00232370E8E740F60200FC
S3150000293CF7E77A21054800F073FDF4E78C2103488C
S3150000294CBDE8384000F06CBD3C220020FD060300BB
S3150000295C70477047704770477047704770477047AD
S3150000296C70477047002070477047704770470020CB
S3150000297C7047704770470020704770477047704724
S3150000298C0020704770470120704701207047704740
S3150000299C7047704770477047704770478842F0B56C
S315000029AC4FEA92031AD89BB29E00871904460D462D
S315000029BC04370434BC4205F104053AD1C3EB833326
S315000029CC314402EB8303013E304411FA83F39942FE
S315000029DC20D011F8012B00F8012FF8E7541E2044E3
S315000029EC9BB22144A0EB830604460D46043E043CF0
S315000029FCB442A5F104050ED16FF003045C43C3EB9E
S31500002A0C833302EB830321449BB201342044CB1A5B
S31500002A1C994209D1F0BD2F792771EF78E770AF781D
S31500002A2CA7706F786770E2E711F8012900F8012D9D
S31500002A3CEEE715F804CC04F804CC15F803CC04F82E
S31500002A4C03CC15F802CC04F802CC15F801CC04F82A
S31500002A5C01CCAEE70244904200D1704700F8011B4E
S31500002A6CF9E710B5013801390AB9104606E010F835
S31500002A7C014F11F8013F9C4201D0E01A10BD013AFA
S31500002A8C92B2F1E782B2074B42B11A80000C064BA8
S31500002A9C0ABF4FF6CE2218801A8070474BF6EF62AB
S31500002AACF3E700BFA41C0020A61C0020094B1888C5
S31500002ABC020448BF80F0620042001A80064A13885E
S31500002ACC190444BF83F4805383F00B03590011801F
S31500002ADC58407047A41C0020A61C0020034B1870FD
S31500002AEC034B1970034B00221A70704746220020C4
S31500002AFC4522002047220020024B187800F07F0068
S31500002B0C704700BF48220020034B18780130C0B232
S31500002B1C187000F07F0070474822002030B585B051
S31500002B2C0024ADF80A20021D92B2012A1D46ADF80A
S31500002B3C0840ADF80610ADF8044003D94FF6FF7205
S31500002B4C904207D1064A2B46127801A925F004FEBD
S31500002B5C05B030BD014601AA204625F0C3FEF7E7B5
S31500002B6CA81C00202DE9F74FFF2A98461DBF464B9F
S31500002B7C1B689C5C002418BF6408B8F1FF0F1EBFCD
S31500002B8C414B1B6813F808700E46814614BF7F082C
S31500002B9C00271546FFF7B8FF4FEA19238DF80000FA
S31500002BAC8DF803600621360A68468DF804608DF8A8
S31500002BBC01908DF802308DF805401FF019FBFF28A7
S31500002BCC064604D11824204603B0BDE8F08F4FEA20
S31500002BDC440B0BF1070A0AEB4701C9B21FF0BCFA0A
S31500002BEC0028EFD10446A3451BD10BF106013A464A
S31500002BFC01F0FE0130461FF068FB5FFA8AF44FF0D5
S31500002C0C000A5FFA8AF5AF4223D83346BDF8302066
S31500002C1C06214846FFF782FF044630461FF08CF922
S31500002C2CD1E7214628461FF04BFBA11D0246C9B22F
S31500002C3C30461FF04AFB611CC9B228461FF040FB08
S31500002C4CE11D0246C9B2304602341FF03EFBE4B227
S31500002C5CC9E76D00EDB2294640461FF031FB21460F
S31500002C6C024630461FF031FB691CC9B240461FF0C4
S31500002C7C27FB611C0246C9B2304602341FF025FB05
S31500002C8C0AF1010AE4B2BCE7481C0020F8B51C4660
S31500002C9C0E4617460546FFF737FF9DF818102070AD
S31500002CAC20461FF0A5FAFF2804460BD003463A46E9
S31500002CBC28463146FFF732FF054620461FF03CF901
S31500002CCC2846F8BD1825FBE708B5FDF756FBBDE809
S31500002CDC08400EF0ABBD08B5FDF750FBBDE808404B
S31500002CEC0EF0D2BDFFF78DBAFFF791BA30B4BDF82E
S31500002CFC0840BDF80C50CDE9024530BC05F070BF5C
S31500002D0C38B504460D46FFF799FA29462046BDE824
S31500002D1C38400BF0A9BAFFF77CBAFFF786BA000069
S31500002D2C2DE9F84F184E80460D461446994606F185
S31500002D3C010A0DB9BDE8F88F102D4FF00D0249466A
S31500002D4C50462F4628BF1027FFF728FE0123337065
S31500002D5C0D48F4730023B373013427F077FC0B4949
S31500002D6C5FFA87FBE4B2424612F8013B11F8010FF9
S31500002D7C434002F8013CA2EB0803DBB25B45F3D3FC
S31500002D8CED1BADB29046D4E74D2200204C2200201C
S31500002D9C2DE9F04F374D85B01746BDF838800190B8
S31500002DAC03930D220F9B02930E460146681CFFF7F8
S31500002DBCF5FD49232B7028464FEA1823AB7385F88B
S31500002DCC0F8027F043FC2B7883EA17232B706B7844
S31500002DDC4FF002097B406B704C46AA464FF0000B35
S31500002DEC21E0C4F1100CA7EB0B031FFA8CFC9BB271
S31500002DFC634528BF63463046A11B00EB010C5FFA06
S31500002E0C8CF2A0EB060C1FFA8CFC9C451BD31C44C5
S31500002E1CE4B29B44102C1E441FFA8BFB03D12846AC
S31500002E2C27F014FC0024BB45DBD314B1504627F025
S31500002E3C0DFCB9F1010F4FF00004039E47460BD071
S31500002E4C4FF00109CAE710F801CB1AF802E08CEA38
S31500002E5C0E0C0AF802C0D0E7029806490422FFF7C6
S31500002E6C9DFD019B02982246042105B0BDE8F04F5A
S31500002E7CFFF756BF4D220020F7B5099FBDF820403D
S31500002E8CCDE9004706461D46FFF782FF2CB13346B7
S31500002E9C012221462846FFF743FF002003B0F0BD70
S31500002EAC2DE9F743BDF828700F4C1E46054688469B
S31500002EBC91460346394630460122FFF731FF334629
S31500002ECC4A4641462846CDE90074FFF761FF0422C5
S31500002EDC21460B98FFF7C5FD002814BF7E20002065
S31500002EEC03B0BDE8F08300BF492200202DE9F34171
S31500002EFC0A4F0C46991815461E46804621443846FC
S31500002F0C0422FFF74BFDCDE9006763192A462146DB
S31500002F1C4046FFF7C5FF02B0BDE8F0815D220020F8
S31500002F2C00207047002070477047704773B502AB9E
S31500002F3C03E906000446019D1EF0F6FA06462046F5
S31500002F4C1EF000FB9DF800008EB1202C0FD82B78BC
S31500002F5C012B36D803EB4313384923444FF6FF7540
S31500002F6C31F81320AA4202D0013221F81320344B37
S31500002F7C344A33F8145032F814604FF6FF718D4210
S31500002F8C1CBF691C23F8141004F0FD01092930D16B
S31500002F9C998A928A0144914235DA998233F814302F
S31500002FACB34204D3B54202D22046FFF703F9264BAF
S31500002FBC0025EA5CA24228D00135112DF9D102B0C8
S31500002FCC70BD022BD3D11D4B33F814204FF6FF7175
S31500002FDC8A421CBF013223F8142004F121014FF65A
S31500002FECFF7533F81120AA421CBF013223F81120B9
S31500002FFCBDE71D2CD2D1598F0144508F814201DA85
S3150000300C5987CBE7928A9A82C8E72AF084FF0F4B3E
S3150000301C1B788342044603D8E0210D4800F000FAE1
S3150000302C04EB04140B4A2C444FF6FF7132F814309F
S3150000303C8B42C4D0013322F81430C0E77A31002019
S3150000304C28310020D6300020910C0300891C00206A
S3150000305C140C0300B4300020522200210148FFF763
S3150000306CF9BC00BF283100205222FF210148FFF78E
S3150000307CF1BC00BFD630002008B5FFF7EDFFBDE868
S3150000308C0840FFF7F1BF00F039B8000038B5054D20
S3150000309C04462878A04203D02146FFF78CF82C7002
S315000030AC38BD00BF61220020054B1B7820B1012BD7
S315000030BC04D80220FFF7EABF012BFBD8704700BFEC
S315000030CC6122002008B500F019F8BDE8084005F0AB
S315000030DC49B8000010B5084C237853B9FFF7F2FF36
S315000030EC0123237028B10388B3F5817F24BF037DA8
S315000030FC2370207810BD00BF6222002038B5164B15
S3150000310C1B78012B27D805F00BF8144C14490246F2
S3150000311C01200DF02DFD0120FFF7C6FF2578FF2DB0
S3150000312C19D105F01FF8A8B143880E48C3F3400324
S3150000313C182229462370FFF78DFC2378012B0AD120
S3150000314CFFF7C8FF042806D9D9210748BDE838403F
S3150000315C00F066B9207038BD61220020A91C002041
S3150000316CA20C030000320020B40C0300FFF7C6BF0C
S3150000317C2DE9F04F87B04FF0FF3300260393074637
S3150000318C8A461546CDE904668DF81030FFF7B6FF72
S3150000319CFFF7A0FF5B4B1B78012B80461AD1012849
S315000031AC18D9B7FBF0F300FB13739BB1564C22688E
S315000031BC511C03D0237A13449F4237D0E268531C28
S315000031CC03D0237D13449F422FD04FF49D714F485B
S315000031DC00F026F94B4C2278012A09D1B7FBF8F3FB
S315000031EC08FB137323B140F26311484800F018F939
S315000031FC2378012B12D1EB19B3FBF8F408FB14342A
S3150000320C64B1A6B2291B1B1B3246514404A8AD1B44
S3150000321C0393ADB2FFF7C2FB8DF81440002D4BD1D2
S3150000322C039B01335AD1002654E001260C2303FBE1
S3150000323C064332B2187A5300A8EB00095FFA89F9F3
S3150000324C1344A9454FEA830328BF5FFA85F903F1B6
S3150000325C040B009358441FFA89F31A46514620442E
S3150000326C0193FFF79BFB019BED1A0C235E43A119FF
S3150000327CADB20A7A4A44D2B242450A7218D1032038
S3150000328C0193FFF703FF1FFA88F204EB0B01A05919
S3150000329C04F0F6FF06460220FFF7F8FE019B1A46DD
S315000032AC009B2344FF211846FFF7D4FB96B9CA446A
S315000032BC002DB8D04F448DE70320FFF7E7FE2A46D2
S315000032CC5146384604F0DCFF06460220FFF7DEFEC8
S315000032DC002EA5D0304607B0BDE8F08F0A4803682B
S315000032EC01330BD0C36801330AD101230C220DEB39
S315000032FC020102FB0300FFF751FB94E70023F5E7FD
S3150000330C0126E7E7A91C002000320020B40C0300BC
S3150000331C38B5184B1B78012B28D1174CFFF7EEFE4E
S3150000332C236801330FD00320FFF7B0FE2568FFF7A3
S3150000333CD1FE211D82B2284604F0A2FF05460220CA
S3150000334CFFF7A4FE9DB9E36801330FD00320FFF706
S3150000335C9DFEE468FFF7BEFE084982B2204604F0E3
S3150000336C8FFF05460220FFF791FE05B9002528467A
S3150000337C38BD00BFA91C00200032002010320020EE
S3150000338C70B504460D461646FFF7B8FE0420FFF747
S3150000339C7DFE32462946204604F084FF0446022070
S315000033ACFFF774FE204670BDF8B504460E46FFF7CF
S315000033BCA5FE0520FFF76AFE3146204604F084FF81
S315000033CC104D07460220FFF761FE2B68591C09D0E9
S315000033DC9C4207D8A219934204D20C22FF212846FC
S315000033ECFFF738FBEB685A1C09D0A34207D33444C9
S315000033FCA34204D20C22FF210348FFF72BFB3846CD
S3150000340CF8BD00BF003200200C32002008B5FFF7D3
S3150000341C75FEBDE8084004F069BF42DE7047000047
S3150000342C38B504460D461AF08BFB00F0BDFC03F0D4
S3150000343CB6FD2946204619F008FE2B4622460549BC
S3150000344C20200AF051FA29462046BDE83840FFF7FD
S3150000345CE4BF00BF1E0D03006D4B2DE9F0416D4C12
S3150000346C5A68A2655A6AE2656B4AD2F8001221665E
S3150000347CD2F8042262669A6AA266DA6AE2661A6B65
S3150000348C22675A6B6267DB6BA26BA367D4E90F5397
S3150000349C12F0040F18BF1D4619F040FD002285429C
S315000034AC0346606522655CD35C4A954259D8AA6985
S315000034BC6264E969A164B4F85810C1F308010629DD
S315000034CC53D157498A4250D356498A424DD2118814
S315000034DC4DF64262914248D16268C4F89420A268C3
S315000034ECC4F8982040F201704F4A5049934238BFB5
S315000034FC13460A468B423BD3D31AE3640023C4E932
S3150000350C1F33C4E92133C4E92333484E444FDFF853
S3150000351C14C1AE4232D8D4E91FC7D4E92165D4E927
S3150000352C23124FF0000E013BDBB2FF2B41D1BEF153
S3150000353C000F05D0C4E91FC7C4E92165C4E92312ED
S3150000354CB4F85830C3F30803DA1E0F2A55D8DFE84F
S3150000355C02F03A5B474A54545454545154545454FC
S3150000356C543E0022C4E911221D464FF42060BBE7ED
S3150000357C1E68B6F1CD3FBFD10433BBE756F8042D18
S3150000358CBA42C6D36245C4D2D107C2D5002104EBD8
S3150000359C010EDEF87CE09645BBD004311829F6D135
S315000035AC0BB9052301E0013BDBB204EB8301CA67CF
S315000035BCAFE7E0464FF0010EBC4637462E460D46A9
S315000035CC11464246AFE740F60120BDE8F081184BA4
S315000035DCDB6913F0020F40F2025318BF1846F4E7EA
S315000035EC40F60320F1E740F60423B0F5206F08BF40
S315000035FC1846EAE740F60520E7E7013B40F60722C6
S3150000360C3D2B98BF1046E0E740F60220DDE700BFF1
S3150000361C00ED00E00000002000E100E0A01B00200F
S3150000362C14020000F40103009C000020C01B0020C3
S3150000363C0020054010B504F0D5FA044604F0CCFA87
S3150000364C0022012101FA02F3234014D01B4B33F85C
S3150000365C12301B4A062B13D040F207218B420DD198
S3150000366C184919480C68844208D14CF23C334B80FB
S3150000367C0B88138012E00132112AE3D1104AF8E7C5
S3150000368C104B58884FF20F01884214D11988B1F5A6
S3150000369C406F10D211804CF23C325A80084B1A887B
S315000036AC40F201739A4201BF084A094BD2E9000164
S315000036BCC3E9000110BD4FF4C061EBE7320D030006
S315000036CC6C2200200000002007020FF0940000205E
S315000036DC64220020014B1888000A70476C220020D7
S315000036EC014B1888704700BF6C2200202DE9F04F63
S315000036FC4D4CA36BD4F850B0D4F840A05A074FBF2A
S3150000370C0027D4F84CB0D4F85480D4F83CA05ABF57
S3150000371C464FDFF84091DFF84091454A48BFB8461E
S3150000372C13F0080F434B18BF1A46B7EB08061CBF1D
S3150000373C7308642187B01FBF01FB0B33B3FBF6F391
S3150000374C9BB205933C49CDF800804B46CDE9017AF6
S3150000375C08BF0596054600F047FFB3B2CDE90093C6
S3150000376C1FFA8BF2059B3549284600F03DFFA36BEB
S3150000377C5B070AD49C3E5E4507D1626D304B9A427C
S3150000378C03D23049284600F02FFFBA4501D8C2456E
S3150000379C04D24A462C49284600F026FF28460AF051
S315000037AC9DF8236E0BB9636EBBB32849DFF8AC806A
S315000037BCDFF8AC90284600F002FF00260127226EA7
S315000037CC07FA06F3134207D058F8262013781BB1D4
S315000037DC4946284600F0F3FE0136202EEFD1DFF8DD
S315000037EC7C80DFF87C9000260127626E07FA06F3D0
S315000037FC134209D008EB8603D3F8802013781BB14B
S3150000380C4946284600F0DBFE01360E2EEDD1284641
S3150000381C07B0BDE8F04F00F0E1BE0D49284607B0F1
S3150000382CBDE8F04F00F0E0BE00000020C01B0020F9
S3150000383C451003003E1003004D1003007B100300DF
S3150000384C9C000020B4100300E0100300FE100300DF
S3150000385C2D11030039100300CA250300441103007F
S3150000386C622003002DE9F8430446FFF739FF40F6C2
S3150000387C0123984239D010D840F2025398421DD0F9
S3150000388C40F20173984224D040F20153984213D16E
S3150000389C6549204600F0A8FE22E040F60323984234
S315000038AC6CD03DD340F60423984200F09C8040F641
S315000038BC0523984200F0B580BDE8F8835B492046A5
S315000038CC00F092FE5A4B5B495A6C204600F08CFE77
S315000038DC06E0574A5849D2E92523204600F084FED3
S315000038EC2046BDE8F84309F0F9BF514D534920462F
S315000038FC00F07AFE95F86C309F0703D550492046A8
S3150000390C00F072FE95F86F305E0603D54D492046E1
S3150000391C00F06AFE95F96F30002BE1DA4A49B8E7F8
S3150000392C434D4A49204600F05FFE95F868309807EB
S3150000393C04D06A6C3F49204600F056FE95F9683073
S3150000394C002B04DA6A6F4249204600F04DFEDFF880
S3150000395C0C81DFF8189100260127AA6E07FA06F3E8
S3150000396C134207D058F8262013781BB14946204637
S3150000397C00F03AFE0136082EEFD1B1E72C4D354951
S3150000398C204600F031FE2B496A6C204600F02CFED6
S3150000399C95F86930590703D52F49204600F024FEC7
S315000039AC95F96930002B04DA6A6F2949204600F034
S315000039BC1BFE2A4FDFF8B4800826AB6EF340DA07FD
S315000039CC07D557F8262013781BB14146204600F040
S315000039DC0BFE0136102EF0D195F86830002B7FF4D3
S315000039EC7FAF1F4955E7124D1E491C4FDFF87C80EF
S315000039FC204600F0F9FD6A6C0E49204600F0F4FDF5
S31500003A0C1026AB6EF340DB0707D557F82620137844
S31500003A1C1BB14146204600F0E7FD01361A2EF0D1C7
S31500003A2C5EE711494BE700BFC80D0300050E030006
S31500003A3C00000020350E03004E0E0300680E030036
S31500003A4C800E0300BA0E0300ED0E0300290F0300CF
S31500003A5C4E0F0300720F0300890F0300540D030071
S31500003A6CCF0F0300FF0F0300181003006A0F0300AB
S31500003A7C2DE9F84F164C174FDFF86080DFF860A081
S31500003A8C0646002523785FFA85FB0BB9BDE8F88F4F
S31500003A9C57F8043B10492246304600F090FD227838
S31500003AAC04F1010982B9627882B10BF00301032992
S31500003ABC0CBF41465146304600F081FD304609F0B8
S31500003ACC0DFF01354C46DDE74C46E8E74146F2E78B
S31500003ADCFC11030004000020BF0D030018060300B0
S31500003AECBC0D030000F00CB800F00AB800F008B8E2
S31500003AFC00F006B800F004B800F002B800F000B808
S31500003B0C72B61EF0080F09D01EF0040F0DD0DFF8A8
S31500003B1C50E0AEE8FF1F6FF002000CE0DFF840E06B
S31500003B2CAEE8FF1F6FF00E0005E0DFF834E0AEE8FC
S31500003B3CFF1F6FF006006946EFF309828EE8070057
S31500003B4C86460848084C854501D3A54501D384F320
S31500003B5C0888FFF781FC84F3088819F0BBF900008C
S31500003B6C04000020A0120020C01B0020FFF7C6BFD7
S31500003B7C7047000037B57F2A14BF154600254BF257
S31500003B8C34629142044619D17F2241F20201684601
S31500003B9C0823FFF7EFFF082224496846FEF761FF6A
S31500003BAC30B908237F2241F2F0116846FFF7E2FF95
S31500003BBC082269462046FEF7F1FE09E041F2F012B2
S31500003BCC91421AD11A490A6C496C01381D1F0BB95E
S31500003BDC03B030BD013B9D4200F8012F4FEA122283
S31500003BECF5D1033400229A42F2D00132042A04F8A9
S31500003BFC011F4FEA1121F6D1EAE701F47042B2F542
S31500003C0C805F07D1C1F30B0404F17E649AB203FB07
S31500003C1C0541D0E701F46042B2F5005FD8D1C1F39B
S31500003C2C0B0404F17E6404F58044EFE7E31803000B
S31500003C3CB081E00F70B5054616461C46DBB14BF25B
S31500003C4C3463994210D1082C28BF08247F2241F2F4
S31500003C5C02012346FFF78EFFA2B207492846FEF75C
S31500003C6C00FF40B941F2F011234632462846BDE822
S31500003C7C7040FFF77FBF70BDE31803002DE9F843D2
S31500003C8C1646C20704460F4603D594212748FFF76C
S31500003C9CC7FBF30703D595212448FFF7C1FB04F4B2
S31500003CAC7043B3F5805F20D1C4F30B0404F17E643A
S31500003CBC731E1F4A23449342254603D99A211B4857
S31500003CCCFFF7AEFBDFF8649005EB0608454521D1FE
S31500003CDC72083946204619F089F820B34FF48871DA
S31500003CEC1248BDE8F843FFF79BBB04F46043B3F5F9
S31500003CFC005F07D1C4F30B0404F17E6404F5804421
S31500003D0C2546DFE7A1210948FFF78AFB6FF00F056F
S31500003D1C0024D7E715F8013BFF2BD7D0AB2148463B
S31500003D2CFFF77EFBD2E7BDE8F88300BF70180300EF
S31500003D3CFF07E00FFFF7D6BE1FB501211648174C3B
S31500003D4C02F06EFD01221146104602F03FFF0421DF
S31500003D5C072003F031FF124A1068516801AB03C308
S31500003D6C9068186001238DF804300D238DF80C3003
S31500003D7C01A9032320468DF80D3004F016F9094BE2
S31500003D8C04220221C3F8802161621A60A36A0B43E4
S31500003D9CA36204B010BD00BF00250A000020054038
S31500003DACEB18030000E100E0014804F0F2B800BF94
S31500003DBC00200540A52803D10021024804F0D5B8FF
S31500003DCC704700BF00200540024B186800F0010048
S31500003DDC704700BF00200540024A9368002BFCD1B7
S31500003DEC704700BF00200540002070470020704738
S31500003DFC7047000013B572B603F0D1F86D4B6E49DF
S31500003E0C5B698B6000230B76E0204B768B76402328
S31500003E1CC876087748778877CB77684B80226024FA
S31500003E2C81F8202081F8210081F8220081F82320D6
S31500003E3C83F8002383F80143202483F8024383F894
S31500003E4C034383F8042383F8052383F8062383F8B6
S31500003E5C072383F8082383F8092383F80A2383F8B6
S31500003E6C0B2383F80C2383F80D2383F80E2383F896
S31500003E7C0F2383F8102383F8112383F8122383F876
S31500003E8C132383F8142383F8152383F8162383F856
S31500003E9C172383F8182383F8192383F81A2383F836
S31500003EAC1B2383F81C2383F81D2383F81E2383F816
S31500003EBC1F2383F8202383F8212383F8222383F8F6
S31500003ECC234383F8242383F8252383F8262383F8B6
S31500003EDC272383F8282383F8292383F82A2383F8B6
S31500003EEC2B2383F82C2383F82D2383F82E03CB68FE
S31500003EFC23F4E0631B041B0C43F0BF6343F4013350
S31500003F0CCB604B6943F400734B614B6943F0100370
S31500003F1C4B614FF4E0234B6200F0D0F8FFF78AFBBD
S31500003F2CEFF30883264A043B4FF0CD3193423DD242
S31500003F3C244A254892B20021FEF78CFD62B6234B2B
S31500003F4C01225A641A6842F480721A60684603F0B9
S31500003F5CC3FE9DF80130012B03D89DF80030022BCF
S31500003F6C09D91B4B4FF418721A601A4A5A601A4A2E
S31500003F7C5A661A4ADA661A4B01241C6105F016FDBC
S31500003F8C00F0FEFE01F066F9002368460093ADF8DA
S31500003F9C04308DF8034003F04BFA00F04DF918F09D
S31500003FACDDFF104812F06EF902B010BD1960043B2B
S31500003FBCBCE700BF0000000000ED00E000E100E0FF
S31500003FCC6012002090110000A000002000000E409E
S31500003FDC8C420E409A6F05001801000400843208CA
S31500003FEC00300E403C300300FEF79EBF08B50021A2
S31500003FFC0B20FEF797FFBDE80840FEF796BF03209F
S3150000400C00F096B908B5FFF765FB044B0B289ABF71
S3150000401C00B203EB8000184608BD00BF441A03002B
S3150000402C08B5FFF75DFB044BC0F30F22C0B253F883
S3150000403C223003EB800008BD081A0300BFF34F8F34
S3150000404CBFF36F8F054A536A23F480335362D2F859
S3150000405C943023F00103C2F89430704700ED00E071
S3150000406C054B01229A60022100221A6199600421F3
S3150000407C1A6199601A61704790ED00E0084B094986
S3150000408C30B5094C094D1A465819205843F8040BFB
S3150000409C8B42F9D1064B1360064B074A1A6030BDAA
S315000040AC9CED00E0BCED00E0741A03006412FF1FE7
S315000040BC14000020A0ED00E00900080010B502F085
S315000040CC76FF0446FFF7BAFFFFF7D8FFFFF7C8FFE6
S315000040DCBFF34F8FBFF36F8F064B05225A60064A0C
S315000040EC536A43F4803320465362BDE8104002F015
S315000040FC64BF00BF90ED00E000ED00E007282DE95D
S3150000410CF84F04460F462DD0082808BF0224214636
S3150000411C0120FEF794F8FFF757FE651ED5F100084F
S3150000412C48EB050800B3012C1ED1A520FFF742FE73
S3150000413C2646EFF31089012383F31088EFF3118AD7
S3150000414C4FF0000B8BF31188354D404609F05EFE9F
S3150000415C631EC5F800B0042B59D8DFE803F00E4DEA
S3150000416C4D5155000324D2E7FFF72EFE18B1FFF789
S3150000417C33FE0026DDE70646DBE72A4A136923F001
S3150000418C0403136130BF284AD2F82834D2F81C2411
S3150000419C13409BB2254A2B60D2F80011490502D573
S315000041AC1168480506D4D2F80011490305D51268E2
S315000041BC520302D543F480332B601C4BD3F80021F9
S315000041CC002A06DA1B68002BBEBF2B6843F40033AB
S315000041DC2B601EB10121164803F0C7FE404609F0BC
S315000041EC2BFECFB18AF3118889F310882146002063
S315000041FCBDE8F84FFEF723B8012003F069F8C2E7D3
S3150000420C012003F083F8BEE703F0B0F8BBE7842186
S3150000421C0848FFF705F9B6E787F31088E6E700BF0D
S3150000422C7422002000ED00E000A0004000E100E058
S3150000423C002005409C1A0300044AD2F81C341B0CBF
S3150000424C1B04C2F82434024A1360704700A00040D5
S3150000425C702200200021FFF751BFFFF7FBBF0000C3
S3150000426C37B5114C01230020237009F073FF254646
S3150000427C40B1002009F06EFF20B1002323704920C5
S3150000428C03B030BD2B7833B102237F2200210DF110
S3150000429C060018F08FFABDF806300020B3F57F7FC4
S315000042AC1CBF28700720EBE779220020FF2910B4E9
S315000042BC0C4607D80749097841B1E1B25DF8044BC1
S315000042CC18F078BA5DF8044BFFF7B4BC5DF8044BF4
S315000042DC704700BF79220020FF282DE9F0410746E0
S315000042EC884615461E4616D80E4B1B788BB10E4CBF
S315000042FC237823B14FF4EF710C48FFF791F80123A3
S3150000430C2370424633462946F8B218F0B5FB002313
S3150000431C2370BDE8F08129461A46BDE8F041FFF747
S3150000432CADBC00BF7922002078220020111B0300AF
S3150000433C024B1B780BB118F09DBC704779220020FC
S3150000434C70B5164685180AB9304470BD01F00F03D6
S3150000435C0A2B34BF302437242344013A090905F8C3
S3150000436C013DD2B2EFE70000F0B5F9B100281CDA36
S3150000437C2D23B0F1004F137000D04042012115E0FF
S3150000438C801B8642ECB205F10105F9D904B927B1B7
S3150000439C4D1C303454540127E9B20133092B09D191
S315000043AC303050540131C8B2F0BD00210023DFF883
S315000043BC0CC01F465CF823600025E2E7801B030057
S315000043CC2DE9F04F95B04FF0000B02AC81468A46B2
S315000043DC17461D465E46A0463B7863B902ABE41A07
S315000043ECE4B2224619465046C847002840F093804E
S315000043FC3444E0B290E0252B13D0BBF1000F14D15E
S3150000440C2370013412AB9C426DD3A4EB0804E4B2C6
S3150000441C224641465046C84700287CD12644F6B26F
S3150000442C60E0BBF1000F00D101373B78632B00F045
S3150000443C92801BD8392B09D8302B80F09E80002B0C
S3150000444CCCD0252B51D04FF0000BDBE7582B00F0CE
S3150000445C8B80622BF7D12B6801936B6800934FF01E
S3150000446C000B009B9B4543D10835ECE7702B1ED007
S3150000447C17D8642B01D06C2BE5D16C2B05F1040BF2
S3150000448C28686CD17B78752B14BF0121002101D0D3
S3150000449C642B00D101372246FFF766FF04445D46C4
S315000044ACD1E7752BE9D0782B5ED0732BCBD1A4EB4F
S315000044BC0804E4B2224602A9504605F1040B2D6805
S315000044CCC84740BB2644F6B2C4B201302B5D002B64
S315000044DCFAD1224629465046C847E0B926445D46DD
S315000044ECF6B283464446013776E723700134AAE7D1
S315000044FC019B204613F80B100222FFF721FF12AB8B
S3150000450C984204460ED3A0EB0804E4B22246414678
S3150000451C5046C84718B1002015B0BDE8F08F2644A8
S3150000452CF6B24446009B013B5B4582BF20232370B9
S3150000453C013412AB9C420BD3A4EB0804E4B2224622
S3150000454C41465046C8470028E5D12644F6B24446B3
S3150000455C0BF1010B85E72B6823700435C6E7752B29
S3150000456C0CBF0021012196E7204602222978FFF78D
S3150000457CE7FE05F1040B044691E77A7802F0DF02B8
S3150000458C582A19D1322B07F1010B09D129882F1D75
S3150000459C04222046FFF7D4FE3D4604465F4652E70A
S315000045AC342B09D12F1D2D680422290C2046FFF728
S315000045BCC7FE0422A9B2EDE74FF0010B22E70EB4B9
S315000045CC03B503AA52F8041B019209F0A3FCC0B26E
S315000045DC02B05DF804EB03B0704700000149FFF729
S315000045ECEEBF00BF180603000EB433B505AA054688
S315000045FC52F8041B019209F08DFC04462846FFF77D
S3150000460CEDFFE0B202B0BDE8304003B0704708B52C
S3150000461C09F080FCC0B208BD2DE9F04F9B46584B03
S3150000462C85B01B78109F9DF844A0DDF85080064697
S3150000463C89461546002B00F09280072A00F29180DD
S3150000464C0E9B002B00F08D800F9B002B00F08980B9
S3150000465C129BB3F5006F00F38480012801D1002F63
S3150000466C7FD0484B03EB05131B7B002B7BD0464CB2
S3150000467C1022002168462BF0E4FC04EB45141022B2
S3150000468CB9F1000F5CD1494620462BF0DAFCA37831
S3150000469C43F01003A370E37843F03003E370BAF1F0
S315000046AC000F03D1DBB243F00303E3703649129BD0
S315000046BCCDF800B06A01013B885A01EB020C63F39A
S315000046CC0E1088520E9BCCF808300F9BCCF8043099
S315000046DC9DF84C109CF80330012E61F383038CF883
S315000046EC033042D11323CCF80C309CE80F000CF1AC
S315000046FC100E8EE80F00DCF81C20CCF814706FF04E
S3150000470C030161F39F02B9F1010FCCF81C2004D10F
S3150000471C0F9BCCF81830CCF804701A492A018B1868
S3150000472C41F802800027159A5A6028469F605E73EE
S3150000473C2246694603F06CF9384605B0BDE8F08FA1
S3150000474C002120462BF07DFC1023A3700323E3707D
S3150000475CBAF1000FAAD1DBB243F03003A5E70B4840
S3150000476CEBE70B48E9E70B48E7E7B8F1000FD4D1C4
S3150000477C9CF8023068F304138CF80230CDE700BFC6
S3150000478CFC2300207C220020FC220020028000F06A
S3150000479C018000F0078000F038B5104B1B780546F9
S315000047ACBBB1C0B102F003FC0D49002301EB0312AF
S315000047BC147B3CB92B6001231373146002F0FDFBD0
S315000047CC204638BD0133082BF0D102F0F6FB054824
S315000047DCF7E70548F5E70548F3E700BFFC2300209B
S315000047EC7C220020048000F0028000F0018000F0A2
S315000047FC38B502F0DCFB0B4A05460023D1180C7BBE
S3150000480C5CB91033802BF9D103F0B6F8064B284669
S3150000481C1C7002F0D2FB204638BD284602F0CDFBB8
S3150000482C0248F9E77C220020FC230020058000F0DA
S3150000483C0D4B1B7810B5044693B1072812D802F01D
S3150000484CB6FB0A4B03EB04131A7B2AB100241C7328
S3150000485C02F0B3FB204610BD02F0AFFB0448FAE7AA
S3150000486C0448F8E70448F6E7FC2300207C220020E5
S3150000487C068000F0028000F0018000F013B5164BA4
S3150000488C1868019000238DF8043002F090FB134B4E
S3150000489C1C7824B102F091FB114802B010BD012224
S315000048AC1A7002F08AFB0F4B1C731C7783F82C4092
S315000048BC83F83C4083F84C4083F85C4083F86C40AA
S315000048CC83F87C4004230DEB03008DF8073003F0CE
S315000048DC73F82046E1E700BFA41B0300FC2300206D
S315000048EC038000F07C22002010B588B00E9C079443
S315000048FC0D9C06949DF8304005940B9C04949DF8F1
S3150000490C284003940024CDE9013400920B4602465C
S3150000491C21462046FFF780FE08B010BD10B588B0C2
S3150000492C0E9C07940D9C06949DF8304005940B9CA8
S3150000493C04949DF8284003940024CDE90134009298
S3150000494C0B46024601212046FFF766FE08B010BD55
S3150000495C08B50A4B1B785BB107280BD8084B03EB41
S3150000496C00131B7B43B1002103F01CF8002008BD8B
S3150000497C0448FCE70448FAE70448F8E7FC2300205F
S3150000498C7C220020028000F0018000F0078000F0FD
S3150000499C08B50A4B1B785BB107280BD8084B03EB01
S315000049AC00131B7B43B1012102F0FCFF002008BD64
S315000049BC0448FCE70448FAE70448F8E7FC2300201F
S315000049CC7C220020028000F0018000F0078000F0BD
S315000049DC08B50A4B1B7853B107280AD8084B03EBCA
S315000049EC00131B7B3BB103F065F8002008BD05489E
S315000049FCFCE70548FAE70548F8E700BFFC2300206A
S31500004A0C7C220020028000F0018000F0078000F07C
S31500004A1C0D4B1B7893B1072812D889B10B4B03EBBE
S31500004A2C00131B7B73B10A4B1A6A012303FA00F0BD
S31500004A3C10401ABF00200B7008707047054870476D
S31500004A4C0548704705487047FC2300207C2200204F
S31500004A5C00200E40028000F0018000F0078000F07C
S31500004A6C0B4B1B7810B50C4663B107280CD859B103
S31500004A7C084B03EB00131B7B43B103F031F82060AA
S31500004A8C002010BD0448FCE70448FAE70448F8E7A0
S31500004A9CFC2300207C220020028000F0018000F024
S31500004AAC078000F02DE9F843174E326EF36E12EACA
S31500004ABC030800D5FEE7154CDFF8549001270025B6
S31500004ACC18EA070F16D02368B7669BB1A16862680F
S31500004ADC0131A16028469847637B012B0AD148B95E
S31500004AEC09EB4513197B1A7F60F3410160F3410210
S31500004AFC19731A770135082D4FEA470704F110048C
S31500004B0CDED1BDE8F88300BF00200E407C220020D9
S31500004B1CFC22002070B5094E0446012504B970BD6F
S31500004B2C94FAA4F0B0FA80F005FA00F324EA030430
S31500004B3C56F82030002BF1D09847EFE700240020E0
S31500004B4C054B4FF48022C3F880211A604FF4806223
S31500004B5CC3F880211A60704700E100E038B50446BE
S31500004B6C0D4602F024FA034B43F82450BDE83840B6
S31500004B7C02F023BA00240020074BD3F82804D3F8FC
S31500004B8C1C24104020F42A5020F02A004004400C2B
S31500004B9CC3F82404FFF7BEBF00A00040074BD3F8B0
S31500004BAC2804D3F81C24104020F4AA4020F0550009
S31500004BBC0004000CC3F82404FFF7ACBF00A00040AF
S31500004BCC2DE9F84F284C4FF0000A04F1A005804659
S31500004BDC4FF000094FF0010B237F84F81DA06BB139
S31500004BECD4E90023994508BF9045104619460AD2C8
S31500004BFCB2EB080063EB0901C4E900012834AC42AE
S31500004C0CEAD1BDE8F88FE37F33B92377A369002B8C
S31500004C1CF4D084F81DB0F1E7D4E90267B8EB0000D4
S31500004C2C69EB010132463B462BF038F8B01A67EBBC
S31500004C3C030123696269002BC4E900010BDD1344EF
S31500004C4C1D2B6361E2D9461C41F100071E3BC4E9EA
S31500004C5C00676361DAE7D31A1D2B6361D6D910F1AD
S31500004C6CFF3641F1FF37F1E75024002038B5074CE9
S31500004C7C0025637F1BB1A369216A28469847013535
S31500004C8C042D04F12804F4D138BD00BF50240020B3
S31500004C9C064B5A6A99690A40D20705D501221A624F
S31500004CAC034A136801331360704700BF00200440A9
S31500004CBCF0240020F0B5194E00214FF0FF324FF0D2
S31500004CCCFF337418257F3DB1D4E900459D4208BFDA
S31500004CDC94423CBF22462B462831A029F1D11049DB
S31500004CEC00240C705C1C08BFB2F1FF3F0C4614D0BC
S31500004CFC00279F420B496FF0640608BF9642086076
S31500004D0C38BF32460849042502440D6201234A6520
S31500004D1C23704B6A43F004034B62F0BD5024002011
S31500004D2C4824002044240020002004400F4B1B780C
S31500004D3C70B50546BBB102F03AF90D490023282699
S31500004D4C06FB0312947F14B935B90A4C07E00133FC
S31500004D5C042BF5D1084C02E0012191772B6002F06F
S31500004D6C2CF9204670BD054CFBE700BF49240020FA
S31500004D7C50240020041000F0011000F0061000F082
S31500004D8C70B5204D2C78002C3AD101211E481F4EAF
S31500004D9C01F046FD03211E4801F0BCFF01211D4810
S31500004DAC347101F03DFD304602F062FF1A490120D4
S31500004DBC02F044FF194B1A485A6A22F4FF6222F099
S31500004DCC07025A6240F2FF721A62164A9C604FF052
S31500004DDC0041C2F8801111605A6A42F001025A620F
S31500004DEC2146A0222BF02DF90F4B1C700F4B1C707B
S31500004DFC0F4B1C600F4B1C600F4B1C6001232B7060
S31500004E0C002070BD4924002000250A00B41C002097
S31500004E1C05002400A0091400BD1C0020002004403D
S31500004E2C5024002000E100E040240020482400200B
S31500004E3C4C240020F0240020F42400202DE9F74F08
S31500004E4C93465C4A1278074689461E46002A00F0AD
S31500004E5CAD80032800F2AC8002F0A9F8564A28244B
S31500004E6C04FB07248046A17F924629B902F0A5F8D7
S31500004E7C524803B0BDE8F08FBBF1000F08D116B154
S31500004E8C0C993846B047404602F097F80020F0E7F8
S31500004E9C4B4A4FF4004C4FF4FA7000219568A6610A
S31500004EAC4FF47A720023ECFB0B012AF0F7FEB9F1F2
S31500004EBC010F02460B46C4E9022309D14FF47A735B
S31500004ECC03FB0BFB1E2303FB10B323610F23636150
S31500004EDC282303FB07A301304FF0010241F1000127
S31500004EECC3E900011A770C9A83F81F901A62354BA6
S31500004EFC1B78002BC7D1344C236801331EBF2368A3
S31500004F0C01332360314B01931A78E2B9304B2C4EA6
S31500004F1C1D600423336200236FF064028B4208BFCA
S31500004F2C824238BF104628447065736A019A43F072
S31500004F3C04037362012313702368002BA3D0236828
S31500004F4C013B23609FE72368012BF5D1282303FB44
S31500004F5C07A30026DFF86890DFF874B01E77D9F83F
S31500004F6C242022F00402C9F82420DBF80000281AB9
S31500004F7CFFF726FEFFF77AFE26B9282202FB07A2C8
S31500004F8C012010772846FFF795FE114BD9F80850EB
S31500004F9C1868D9F85420019BA5EB000C121A187846
S31500004FAC01360028C8D09445D9D2C5E7094860E730
S31500004FBC09485EE74924002050240020031000F025
S31500004FCC00200440402400204C24002048240020CB
S31500004FDC44240020061000F0021000F02DE9F843DE
S31500004FEC264B1B7805460C46002B41D0032841D88E
S31500004FFC002941D001F0DBFF214B282202FB0533AF
S3150000500C9A7F22B901F0D9FF1E48BDE8F8831A7FB2
S3150000501C1AB901F0D2FF1C48F7E7D3E900671B4B1E
S3150000502C9D681B4BD3F8008001F0C7FF0021A5EB50
S3150000503C08008F4208BF864215D3361A67EB010764
S3150000504CB046B9464FF47A75A8FB052312F5804095
S3150000505C05FB09334FEAD03243F1000142EA4142E3
S3150000506C22600020D1E74FF000084FF00009E9E775
S3150000507C0848CAE70848C8E70848C6E74924002094
S3150000508C50240020031000F0051000F0002004400E
S3150000509C44240020061000F0021000F0041000F06A
S315000050ACF8B501F084FF084D084F2C68BE68FFF771
S315000050BCEFFD2B689C42F8D101F07FFF002290197E
S315000050CC44F10001F8BD00BFF0240020002004408C
S315000050DC2DE910484FF47A74A0FB04BC1BF58042F2
S315000050EC04FB01CC4CF10003D00B40EA4340BDE875
S315000050FC108800002DE9F8431A4C01F058FF626A3B
S3150000510CA1690A4022F0050153070546216221D503
S3150000511C154AA768154EDFF8589001211170904674
S3150000512C636A23F0040363623068381AFFF748FD9C
S3150000513CFFF79CFD3846FFF7BDFD3268A768636D27
S3150000514CB91A9B1A99F800200AB19942E8D20023A1
S3150000515C88F80030FFF79CFD2846BDE8F84301F0BF
S3150000516C2CBF00BF00200440402400204424002013
S3150000517C48240020044B4FF04042DA621A6B22F0AE
S3150000518C40421A63704700BF00300E402C48F0B501
S3150000519C002203682B4D114654592CB11E68AC18CD
S315000051AC002E36D1234601210832282AF4D101B12A
S315000051BC03602549254E0B680022144695592DB1DE
S315000051CC1F68B518002F2BD12B4601240832282A2C
S315000051DCF4D104B10B6000681D4B026842B3DA6966
S315000051EC007922F0FF020243DA611A6B42F0804228
S315000051FC09681A630A68164BF2B1DA69097922F45E
S3150000520C7F4242EA0122DA611A6B42F000421A63CB
S3150000521CF0BD1E792779B74284BF23460121C3E727
S3150000522C1F7995F804C0BC453CBF2B460124CDE73D
S3150000523C1A6B22F08042DBE71A6B22F00042E6E79B
S3150000524C0425002014250020082500203C250020DC
S3150000525C00300E4008B51B4B1B4801221A7000216A
S3150000526C28222AF0EEFE2822002118482AF0E9FE10
S3150000527C174A184B13601849184A13600A684B6D85
S3150000528CC2F30742FF2A02D0DBB2FF2B01D19023D7
S3150000529C1922134802EB820103EBD1010160DB00FA
S315000052AC0521B3FBF1F313440E4A1360FFF762FFBB
S315000052BC0D4B0122C3F880211A60FFF767FF00200F
S315000052CC08BD00BFF8240020142500203C25002032
S315000052DC042500200C250020B081E00F08250020B5
S315000052ECFC2400200025002000E100E0064B186A93
S315000052FCC0B20523C000B0FBF3F0044B1B68181AB0
S3150000530C00F3070040B2704700300E400025002025
S3150000531C10B5144C226B616A0A4010D5124B1B68EF
S3150000532C1A682AB1002119605960FFF7DFFF904710
S3150000533C4FF00043E362BDE81040FFF727BF530070
S3150000534CF9D50A4B1B681A6832B1002119605960ED
S3150000535CFFF7CCFF01219047024B4FF08042DA62F7
S3150000536CE9E700BF00300E40082500200425002088
S3150000537CFFF7CEBF38B141B1013AB2F5006F044820
S3150000538C38BF00207047034870470148704700BF7C
S3150000539C037000F0027000F00D490E4A0B7810B540
S315000053AC4BB9C2E90033C2E9023301240C7042F84E
S315000053BC2300002010BD002352F823100029F6D03C
S315000053CC8142F4D00133042BF6D10348F2E700BF37
S315000053DC7425002064250020027000F038B50446C0
S315000053EC0D4601F0E4FDA28892B222B92A6001F0C2
S315000053FCE4FD064838BD6388142202FB03430833D8
S3150000540C2B6001F0DAFD0020F4E700BF0B7000F012
S3150000541C38B504460D4601F0CAFDA3889BB223B9E4
S3150000542C2B6001F0CAFD0C4838BD6388E188142254
S3150000543C02FB034308332B6063885A1C92FBF1F37F
S3150000544C01FB13239BB26380A388013B9BB2A38011
S3150000545C01F0B3FD0020E7E70B7000F07FB50123E8
S3150000546C80F82C3090F8323093B90C4A03680392CA
S3150000547C0022049002924A680192012200920A6864
S3150000548C016980681C33FFF749FA07B05DF804FB25
S3150000549C012BEAD0002380F82C30F6E7F95C0000EB
S315000054AC7FB5012380F82D3090F8323083B902682D
S315000054BC34320D4B03930023049002934B680193F3
S315000054CC012300930B68C1684068FFF70DFA07E0EB
S315000054DC012B02D102682832EBE7002380F82D302D
S315000054EC07B05DF804FB00BFF9540000F7B5906AED
S315000054FC01A91446FFF772FF144B984220D0019B6A
S3150000550C00251D619D6001F052FD019AD668074683
S3150000551C26B1D2E9002329462046B04701A9A06A44
S3150000552CFFF776FFA06A83889BB263B101A9FFF7E8
S3150000553C55FF01992046FFF7B3FF384601F03DFDB4
